{
  "_format": "hh-sol-artifact-1",
  "contractName": "InstaSocial",
  "sourceName": "contracts/InstaSocial.sol",
  "abi": [
    {
      "inputs": [],
      "stateMutability": "nonpayable",
      "type": "constructor"
    },
    {
      "inputs": [
        {
          "internalType": "address",
          "name": "owner",
          "type": "address"
        }
      ],
      "name": "OwnableInvalidOwner",
      "type": "error"
    },
    {
      "inputs": [
        {
          "internalType": "address",
          "name": "account",
          "type": "address"
        }
      ],
      "name": "OwnableUnauthorizedAccount",
      "type": "error"
    },
    {
      "inputs": [],
      "name": "ReentrancyGuardReentrantCall",
      "type": "error"
    },
    {
      "anonymous": false,
      "inputs": [
        {
          "indexed": true,
          "internalType": "address",
          "name": "previousOwner",
          "type": "address"
        },
        {
          "indexed": true,
          "internalType": "address",
          "name": "newOwner",
          "type": "address"
        }
      ],
      "name": "OwnershipTransferred",
      "type": "event"
    },
    {
      "anonymous": false,
      "inputs": [
        {
          "indexed": true,
          "internalType": "address",
          "name": "user",
          "type": "address"
        },
        {
          "indexed": false,
          "internalType": "string",
          "name": "content",
          "type": "string"
        },
        {
          "indexed": false,
          "internalType": "uint256",
          "name": "timestamp",
          "type": "uint256"
        }
      ],
      "name": "PostCreated",
      "type": "event"
    },
    {
      "anonymous": false,
      "inputs": [
        {
          "indexed": true,
          "internalType": "address",
          "name": "user",
          "type": "address"
        },
        {
          "indexed": false,
          "internalType": "uint256",
          "name": "postId",
          "type": "uint256"
        },
        {
          "indexed": false,
          "internalType": "uint256",
          "name": "timestamp",
          "type": "uint256"
        }
      ],
      "name": "PostLiked",
      "type": "event"
    },
    {
      "inputs": [],
      "name": "balance",
      "outputs": [
        {
          "internalType": "uint256",
          "name": "",
          "type": "uint256"
        }
      ],
      "stateMutability": "view",
      "type": "function"
    },
    {
      "inputs": [
        {
          "internalType": "string",
          "name": "content",
          "type": "string"
        }
      ],
      "name": "createPost",
      "outputs": [],
      "stateMutability": "nonpayable",
      "type": "function"
    },
    {
      "inputs": [],
      "name": "getBalance",
      "outputs": [
        {
          "internalType": "uint256",
          "name": "",
          "type": "uint256"
        }
      ],
      "stateMutability": "view",
      "type": "function"
    },
    {
      "inputs": [],
      "name": "getPosts",
      "outputs": [
        {
          "components": [
            {
              "internalType": "address",
              "name": "user",
              "type": "address"
            },
            {
              "internalType": "string",
              "name": "content",
              "type": "string"
            },
            {
              "internalType": "uint256",
              "name": "timestamp",
              "type": "uint256"
            },
            {
              "internalType": "uint256",
              "name": "likes",
              "type": "uint256"
            }
          ],
          "internalType": "struct InstaSocial.Post[]",
          "name": "",
          "type": "tuple[]"
        }
      ],
      "stateMutability": "view",
      "type": "function"
    },
    {
      "inputs": [
        {
          "internalType": "uint256",
          "name": "postId",
          "type": "uint256"
        }
      ],
      "name": "likePost",
      "outputs": [],
      "stateMutability": "nonpayable",
      "type": "function"
    },
    {
      "inputs": [],
      "name": "owner",
      "outputs": [
        {
          "internalType": "address",
          "name": "",
          "type": "address"
        }
      ],
      "stateMutability": "view",
      "type": "function"
    },
    {
      "inputs": [
        {
          "internalType": "uint256",
          "name": "",
          "type": "uint256"
        }
      ],
      "name": "posts",
      "outputs": [
        {
          "internalType": "address",
          "name": "user",
          "type": "address"
        },
        {
          "internalType": "string",
          "name": "content",
          "type": "string"
        },
        {
          "internalType": "uint256",
          "name": "timestamp",
          "type": "uint256"
        },
        {
          "internalType": "uint256",
          "name": "likes",
          "type": "uint256"
        }
      ],
      "stateMutability": "view",
      "type": "function"
    },
    {
      "inputs": [],
      "name": "renounceOwnership",
      "outputs": [],
      "stateMutability": "nonpayable",
      "type": "function"
    },
    {
      "inputs": [
        {
          "internalType": "address",
          "name": "newOwner",
          "type": "address"
        }
      ],
      "name": "transferOwnership",
      "outputs": [],
      "stateMutability": "nonpayable",
      "type": "function"
    }
  ],
  "bytecode": "0x608060405234801561001057600080fd5b5033600073ffffffffffffffffffffffffffffffffffffffff168173ffffffffffffffffffffffffffffffffffffffff16036100845760006040517f1e4fbdf700000000000000000000000000000000000000000000000000000000815260040161007b91906101ad565b60405180910390fd5b610093816100a860201b60201c565b506001808190555060006002819055506101c8565b60008060009054906101000a900473ffffffffffffffffffffffffffffffffffffffff169050816000806101000a81548173ffffffffffffffffffffffffffffffffffffffff021916908373ffffffffffffffffffffffffffffffffffffffff1602179055508173ffffffffffffffffffffffffffffffffffffffff168173ffffffffffffffffffffffffffffffffffffffff167f8be0079c531659141344cd1fd0a4f28419497f9722a3daafe3b4186f6b6457e060405160405180910390a35050565b600073ffffffffffffffffffffffffffffffffffffffff82169050919050565b60006101978261016c565b9050919050565b6101a78161018c565b82525050565b60006020820190506101c2600083018461019e565b92915050565b6111d4806101d76000396000f3fe608060405234801561001057600080fd5b50600436106100935760003560e01c8063725009d311610066578063725009d3146101115780638da5cb5b1461012d578063b69ef8a81461014b578063c7303c6114610169578063f2fde38b1461018557610093565b80630b1e7f831461009857806312065fe0146100cb57806341f3004a146100e9578063715018a614610107575b600080fd5b6100b260048036038101906100ad9190610854565b6101a1565b6040516100c29493929190610961565b60405180910390f35b6100d3610289565b6040516100e091906109ad565b60405180910390f35b6100f1610293565b6040516100fe9190610b55565b60405180910390f35b61010f6103ee565b005b61012b60048036038101906101269190610854565b610402565b005b6101356104d9565b6040516101429190610b77565b60405180910390f35b610153610502565b60405161016091906109ad565b60405180910390f35b610183600480360381019061017e9190610cc7565b610508565b005b61019f600480360381019061019a9190610d3c565b610631565b005b600381815481106101b157600080fd5b90600052602060002090600402016000915090508060000160009054906101000a900473ffffffffffffffffffffffffffffffffffffffff16908060010180546101fa90610d98565b80601f016020809104026020016040519081016040528092919081815260200182805461022690610d98565b80156102735780601f1061024857610100808354040283529160200191610273565b820191906000526020600020905b81548152906001019060200180831161025657829003601f168201915b5050505050908060020154908060030154905084565b6000600254905090565b60606003805480602002602001604051908101604052809291908181526020016000905b828210156103e557838290600052602060002090600402016040518060800160405290816000820160009054906101000a900473ffffffffffffffffffffffffffffffffffffffff1673ffffffffffffffffffffffffffffffffffffffff1673ffffffffffffffffffffffffffffffffffffffff16815260200160018201805461034090610d98565b80601f016020809104026020016040519081016040528092919081815260200182805461036c90610d98565b80156103b95780601f1061038e576101008083540402835291602001916103b9565b820191906000526020600020905b81548152906001019060200180831161039c57829003601f168201915b5050505050815260200160028201548152602001600382015481525050815260200190600101906102b7565b50505050905090565b6103f66106b7565b610400600061073e565b565b6003805490508110610449576040517f08c379a000000000000000000000000000000000000000000000000000000000815260040161044090610e15565b60405180910390fd5b60016003828154811061045f5761045e610e35565b5b9060005260206000209060040201600301600082825461047f9190610e93565b925050819055503373ffffffffffffffffffffffffffffffffffffffff167f29ad17d6120e01123e3509137edf8444825cedb1d294738da797e42b35d4157a82426040516104ce929190610ec7565b60405180910390a250565b60008060009054906101000a900473ffffffffffffffffffffffffffffffffffffffff16905090565b60025481565b600360405180608001604052803373ffffffffffffffffffffffffffffffffffffffff1681526020018381526020014281526020016000815250908060018154018082558091505060019003906000526020600020906004020160009091909190915060008201518160000160006101000a81548173ffffffffffffffffffffffffffffffffffffffff021916908373ffffffffffffffffffffffffffffffffffffffff16021790555060208201518160010190816105c7919061109c565b50604082015181600201556060820151816003015550503373ffffffffffffffffffffffffffffffffffffffff167fb5a2d6ecdc9bd09637c1de2e8e02011abe041770e16737ec2adfa54c8e0581c7824260405161062692919061116e565b60405180910390a250565b6106396106b7565b600073ffffffffffffffffffffffffffffffffffffffff168173ffffffffffffffffffffffffffffffffffffffff16036106ab5760006040517f1e4fbdf70000000000000000000000000000000000000000000000000000000081526004016106a29190610b77565b60405180910390fd5b6106b48161073e565b50565b6106bf610802565b73ffffffffffffffffffffffffffffffffffffffff166106dd6104d9565b73ffffffffffffffffffffffffffffffffffffffff161461073c57610700610802565b6040517f118cdaa70000000000000000000000000000000000000000000000000000000081526004016107339190610b77565b60405180910390fd5b565b60008060009054906101000a900473ffffffffffffffffffffffffffffffffffffffff169050816000806101000a81548173ffffffffffffffffffffffffffffffffffffffff021916908373ffffffffffffffffffffffffffffffffffffffff1602179055508173ffffffffffffffffffffffffffffffffffffffff168173ffffffffffffffffffffffffffffffffffffffff167f8be0079c531659141344cd1fd0a4f28419497f9722a3daafe3b4186f6b6457e060405160405180910390a35050565b600033905090565b6000604051905090565b600080fd5b600080fd5b6000819050919050565b6108318161081e565b811461083c57600080fd5b50565b60008135905061084e81610828565b92915050565b60006020828403121561086a57610869610814565b5b60006108788482850161083f565b91505092915050565b600073ffffffffffffffffffffffffffffffffffffffff82169050919050565b60006108ac82610881565b9050919050565b6108bc816108a1565b82525050565b600081519050919050565b600082825260208201905092915050565b60005b838110156108fc5780820151818401526020810190506108e1565b60008484015250505050565b6000601f19601f8301169050919050565b6000610924826108c2565b61092e81856108cd565b935061093e8185602086016108de565b61094781610908565b840191505092915050565b61095b8161081e565b82525050565b600060808201905061097660008301876108b3565b81810360208301526109888186610919565b90506109976040830185610952565b6109a46060830184610952565b95945050505050565b60006020820190506109c26000830184610952565b92915050565b600081519050919050565b600082825260208201905092915050565b6000819050602082019050919050565b6109fd816108a1565b82525050565b600082825260208201905092915050565b6000610a1f826108c2565b610a298185610a03565b9350610a398185602086016108de565b610a4281610908565b840191505092915050565b610a568161081e565b82525050565b6000608083016000830151610a7460008601826109f4565b5060208301518482036020860152610a8c8282610a14565b9150506040830151610aa16040860182610a4d565b506060830151610ab46060860182610a4d565b508091505092915050565b6000610acb8383610a5c565b905092915050565b6000602082019050919050565b6000610aeb826109c8565b610af581856109d3565b935083602082028501610b07856109e4565b8060005b85811015610b435784840389528151610b248582610abf565b9450610b2f83610ad3565b925060208a01995050600181019050610b0b565b50829750879550505050505092915050565b60006020820190508181036000830152610b6f8184610ae0565b905092915050565b6000602082019050610b8c60008301846108b3565b92915050565b600080fd5b600080fd5b7f4e487b7100000000000000000000000000000000000000000000000000000000600052604160045260246000fd5b610bd482610908565b810181811067ffffffffffffffff82111715610bf357610bf2610b9c565b5b80604052505050565b6000610c0661080a565b9050610c128282610bcb565b919050565b600067ffffffffffffffff821115610c3257610c31610b9c565b5b610c3b82610908565b9050602081019050919050565b82818337600083830152505050565b6000610c6a610c6584610c17565b610bfc565b905082815260208101848484011115610c8657610c85610b97565b5b610c91848285610c48565b509392505050565b600082601f830112610cae57610cad610b92565b5b8135610cbe848260208601610c57565b91505092915050565b600060208284031215610cdd57610cdc610814565b5b600082013567ffffffffffffffff811115610cfb57610cfa610819565b5b610d0784828501610c99565b91505092915050565b610d19816108a1565b8114610d2457600080fd5b50565b600081359050610d3681610d10565b92915050565b600060208284031215610d5257610d51610814565b5b6000610d6084828501610d27565b91505092915050565b7f4e487b7100000000000000000000000000000000000000000000000000000000600052602260045260246000fd5b60006002820490506001821680610db057607f821691505b602082108103610dc357610dc2610d69565b5b50919050565b7f506f737420646f6573206e6f7420657869737400000000000000000000000000600082015250565b6000610dff6013836108cd565b9150610e0a82610dc9565b602082019050919050565b60006020820190508181036000830152610e2e81610df2565b9050919050565b7f4e487b7100000000000000000000000000000000000000000000000000000000600052603260045260246000fd5b7f4e487b7100000000000000000000000000000000000000000000000000000000600052601160045260246000fd5b6000610e9e8261081e565b9150610ea98361081e565b9250828201905080821115610ec157610ec0610e64565b5b92915050565b6000604082019050610edc6000830185610952565b610ee96020830184610952565b9392505050565b60008190508160005260206000209050919050565b60006020601f8301049050919050565b600082821b905092915050565b600060088302610f527fffffffffffffffffffffffffffffffffffffffffffffffffffffffffffffffff82610f15565b610f5c8683610f15565b95508019841693508086168417925050509392505050565b6000819050919050565b6000610f99610f94610f8f8461081e565b610f74565b61081e565b9050919050565b6000819050919050565b610fb383610f7e565b610fc7610fbf82610fa0565b848454610f22565b825550505050565b600090565b610fdc610fcf565b610fe7818484610faa565b505050565b5b8181101561100b57611000600082610fd4565b600181019050610fed565b5050565b601f8211156110505761102181610ef0565b61102a84610f05565b81016020851015611039578190505b61104d61104585610f05565b830182610fec565b50505b505050565b600082821c905092915050565b600061107360001984600802611055565b1980831691505092915050565b600061108c8383611062565b9150826002028217905092915050565b6110a5826108c2565b67ffffffffffffffff8111156110be576110bd610b9c565b5b6110c88254610d98565b6110d382828561100f565b600060209050601f83116001811461110657600084156110f4578287015190505b6110fe8582611080565b865550611166565b601f19841661111486610ef0565b60005b8281101561113c57848901518255600182019150602085019450602081019050611117565b868310156111595784890151611155601f891682611062565b8355505b6001600288020188555050505b505050505050565b600060408201905081810360008301526111888185610919565b90506111976020830184610952565b939250505056fea2646970667358221220bcfcd6a7bd3598cf619bbf29d2fcb24f6016d304f78c02f99c835a6426dd205864736f6c634300081a0033",
  "linkReferences": {},
  "deployedLinkReferences": {}
}